:020000040800F2
:100000000028002019100008B50F0008BD0F0008D7
:10001000C50F0008CD0F0008D50F00080000000034
:10002000000000000000000000000000DD0F0008DC
:10003000E90F000800000000F50F0008011000089B
:1000400061100008611000086110000861100008CC
:1000500061100008611000086110000861100008BC
:1000600061100008611000086110000861100008AC
:10007000611000086110000861100008611000089C
:10008000611000086110000861100008611000088C
:10009000611000086110000861100008611000087C
:1000A000611000086110000861100008611000086C
:1000B00061100008611000080000000061100008D5
:1000C000611000080000000000000000611000083E
:1000D000000000006110000861100008000000002E
:1000E00061100008611000086110000800000000A5
:1000F0000000000000000000000000000000000000
:0C01000000000000000000005FF808F1A3
:1001100010B5054C237833B9044B13B10448AFF341
:1001200000800123237010BD0C000020000000009F
:10013000CC23000808B5034B1BB103490348AFF3B8
:10014000008008BD0000000010000020CC23000843
:1001500081F0004102E000BF83F0004330B54FEA78
:1001600041044FEA430594EA050F08BF90EA020FE5
:100170001FBF54EA000C55EA020C7FEA645C7FEA78
:10018000655C00F0E2804FEA5454D4EB5555B8BF9B
:100190006D420CDD2C4480EA020281EA030382EA0C
:1001A000000083EA010180EA020281EA0303362D9E
:1001B00088BF30BD11F0004F4FEA01314FF4801C71
:1001C0004CEA113102D0404261EB410113F0004F83
:1001D0004FEA03334CEA133302D0524263EB43033A
:1001E00094EA050F00F0A780A4F10104D5F1200ED8
:1001F0000DDB02FA0EFC22FA05F2801841F1000133
:1002000003FA0EF2801843FA05F359410EE0A5F106
:1002100020050EF1200E012A03FA0EFC28BF4CF037
:10022000020C43FA05F3C01851EBE37101F00045ED
:1002300007D54FF0000EDCF1000C7EEB00006EEBFA
:100240000101B1F5801F1BD3B1F5001F0CD3490884
:100250005FEA30004FEA3C0C04F101044FEA4452DB
:1002600012F5800F80F09A80BCF1004F08BF5FEA62
:10027000500C50F1000041EB045141EA050130BD42
:100280005FEA4C0C404141EB0101013C28BFB1F554
:10029000801FE9D291F0000F04BF01460020B1FA9F
:1002A00081F308BF2033A3F10B03B3F120020CDA72
:1002B0000C3208DD02F1140CC2F10C0201FA0CF050
:1002C00021FA02F10CE002F11402D8BFC2F1200CB5
:1002D00001FA02F120FA0CFCDCBF41EA0C0190406B
:1002E000E41AA2BF01EB0451294330BD6FEA0404B4
:1002F0001F3C1CDA0C340EDC04F11404C4F120029F
:1003000020FA04F001FA02F340EA030021FA04F3B0
:1003100045EA030130BDC4F10C04C4F1200220FA07
:1003200002F001FA04F340EA0300294630BD21FA45
:1003300004F0294630BD94F0000F83F4801306BF0B
:1003400081F480110134013D4EE77FEA645C18BFFF
:100350007FEA655C29D094EA050F08BF90EA020F96
:1003600005D054EA000C04BF1946104630BD91EA8E
:10037000030F1EBF0021002030BD5FEA545C05D191
:100380004000494128BF41F0004130BD14F58004D0
:100390003CBF01F5801130BD01F0004545F0FE4144
:1003A00041F470014FF0000030BD7FEA645C1ABF79
:1003B000194610467FEA655C1CBF0B46024650EAB0
:1003C000013406BF52EA033591EA030F41F40021DC
:1003D00030BD00BF90F0000F04BF0021704730B562
:1003E0004FF4806404F132044FF000054FF0000137
:1003F00050E700BF90F0000F04BF0021704730B5F8
:100400004FF4806404F1320410F0004548BF4042CC
:100410004FF000013EE700BF42004FEAE2014FEA21
:1004200031014FEA02701FBF12F07F4393F07F4FFC
:1004300081F06051704732F07F4208BF704793F0FF
:100440007F4F04BF41F40021704730B54FF4607412
:1004500001F0004521F000411CE700BF50EA010215
:1004600008BF704730B54FF000050AE050EA0102BE
:1004700008BF704730B511F0004502D5404261EB2E
:1004800041014FF4806404F132045FEA915C3FF46F
:10049000D8AE4FF003025FEADC0C18BF03325FEA0C
:1004A000DC0C18BF033202EBDC02C2F1200300FABD
:1004B00003FC20FA02F001FA03FE40EA0E0021FAE2
:1004C00002F11444BDE600BF70B54FF0FF0C4CF4D0
:1004D000E06C1CEA11541DBF1CEA135594EA0C0F82
:1004E00095EA0C0F00F0DEF82C4481EA030621EABD
:1004F0004C5123EA4C5350EA013518BF52EA0335F8
:1005000041F4801143F4801338D0A0FB02CE4FF0A9
:100510000005E1FB02E506F00042E0FB03E54FF0D9
:100520000006E1FB03569CF0000F18BF4EF0010ED1
:10053000A4F1FF04B6F5007F64F5407404D25FEACD
:100540004E0E6D4146EB060642EAC62141EA555180
:100550004FEAC52040EA5E504FEACE2EB4F1FD0CC2
:1005600088BFBCF5E06F1ED8BEF1004F08BF5FEA40
:10057000500E50F1000041EB045170BD06F00046F2
:1005800046EA010140EA020081EA0301B4EB5C049F
:10059000C2BFD4EB0C0541EA045170BD41F4801197
:1005A0004FF0000E013C00F3AB8014F1360FDEBFBC
:1005B000002001F0004170BDC4F10004203C35DA98
:1005C0000C341BDC04F11404C4F1200500FA05F31B
:1005D00020FA04F001FA05F240EA020001F00042BC
:1005E00021F0004110EBD37021FA04F642EB060132
:1005F0005EEA430E08BF20EAD37070BDC4F10C045C
:10060000C4F1200500FA04F320FA05F001FA04F21F
:1006100040EA020001F0004110EBD37041F100010B
:100620005EEA430E08BF20EAD37070BDC4F1200516
:1006300000FA05F24EEA020E20FA04F301FA05F27E
:1006400043EA020321FA04F001F0004121FA04F226
:1006500020EA020000EBD3705EEA430E08BF20EAF6
:10066000D37070BD94F0000F0FD101F00046400030
:1006700041EB010111F4801F08BF013CF7D041EAB2
:10068000060195F0000F18BF704703F000465200B6
:1006900043EB030313F4801F08BF013DF7D043EA87
:1006A0000603704794EA0C0F0CEA135518BF95EA3D
:1006B0000C0F0CD050EA410618BF52EA4306D1D1C4
:1006C00081EA030101F000414FF0000070BD50EAE3
:1006D000410606BF1046194652EA430619D094EA6D
:1006E0000C0F02D150EA013613D195EA0C0F05D157
:1006F00052EA03361CBF104619460AD181EA0301AB
:1007000001F0004141F0FE4141F470014FF0000062
:1007100070BD41F0FE4141F4780170BD70B54FF0FD
:10072000FF0C4CF4E06C1CEA11541DBF1CEA13557D
:1007300094EA0C0F95EA0C0F00F0A7F8A4EB05045F
:1007400081EA030E52EA03354FEA013100F0888056
:100750004FEA03334FF0805545EA131343EA12631F
:100760004FEA022245EA111545EA10654FEA0026D4
:100770000EF000419D4208BF964244F1FD0404F58D
:10078000407402D25B084FEA3202B61A65EB0305E9
:100790005B084FEA32024FF480104FF4002CB6EBA6
:1007A000020E75EB030E22BFB61A754640EA0C0026
:1007B0005B084FEA3202B6EB020E75EB030E22BF66
:1007C000B61A754640EA5C005B084FEA3202B6EBA7
:1007D000020E75EB030E22BFB61A754640EA9C0066
:1007E0005B084FEA3202B6EB020E75EB030E22BF36
:1007F000B61A754640EADC0055EA060E18D04FEAF4
:10080000051545EA16754FEA06164FEAC30343EA93
:1008100052734FEAC2025FEA1C1CC0D111F4801F60
:100820000BD141EA00014FF000004FF0004CB6E759
:1008300011F4801F04BF01430020B4F1FD0C88BFF8
:10084000BCF5E06F3FF6AFAEB5EB030C04BFB6EB03
:10085000020C5FEA500C50F1000041EB045170BDF6
:100860000EF0004E4EEA113114EB5C04C2BFD4EB23
:100870000C0541EA045170BD41F480114FF0000EA7
:10088000013C90E645EA060E8DE60CEA135594EA23
:100890000C0F08BF95EA0C0F3FF43BAF94EA0C0F26
:1008A0000AD150EA01347FF434AF95EA0C0F7FF49B
:1008B00025AF104619462CE795EA0C0F06D152EAEF
:1008C00003353FF4FDAE1046194622E750EA4106D3
:1008D00018BF52EA43067FF4C5AE50EA41047FF4E4
:1008E0000DAF52EA43057FF4EBAE12E74A0011D296
:1008F00012F5001211D20DD56FF47873B3EB62527A
:100900000ED44FEAC12343F0004343EA505323FA85
:1009100002F070474FF00000704750EA013002D1FA
:100920004FF0FF3070474FF00000704780F00040FC
:1009300002E000BF81F0004142001FBF5FEA4103B7
:1009400092EA030F7FEA226C7FEA236C6AD04FEAB7
:100950001262D2EB1363C1BFD218414048404140FC
:10096000B8BF5B42192B88BF704710F0004F40F4AE
:10097000000020F07F4018BF404211F0004F41F4CA
:10098000000121F07F4118BF494292EA030F3FD096
:10099000A2F1010241FA03FC10EB0C00C3F12003A9
:1009A00001FA03F100F0004302D5494260EB400038
:1009B000B0F5000F13D3B0F1807F06D340084FEAA3
:1009C000310102F10102FE2A51D2B1F1004F40EB98
:1009D000C25008BF20F0010040EA03007047490000
:1009E00040EB0000013A28BFB0F5000FEDD2B0FA9D
:1009F00080FCACF1080CB2EB0C0200FA0CF0AABFC0
:100A000000EBC25052421843BCBFD040184370475D
:100A100092F0000F81F4000106BF80F40000013263
:100A2000013BB5E74FEA41037FEA226C18BF7FEA3A
:100A3000236C21D092EA030F04D092F0000F08BF7C
:100A40000846704790EA010F1CBF0020704712F063
:100A50007F4F04D1400028BF40F00040704712F1A2
:100A600000723CBF00F50000704700F0004343F007
:100A7000FE4040F4000070477FEA226216BF08463D
:100A80007FEA23630146420206BF5FEA412390EA00
:100A9000010F40F4800070474FF0000304E000BFF6
:100AA00010F0004348BF40425FEA000C08BF7047A7
:100AB00043F0964301464FF000001CE050EA01026B
:100AC00008BF70474FF000030AE000BF50EA010280
:100AD00008BF704711F0004302D5404261EB41016D
:100AE0005FEA010C02BF84460146002043F0B64392
:100AF00008BFA3F18053A3F50003BCFA8CF2083AB7
:100B0000A3EBC25310DB01FA02FC634400FA02FCBF
:100B1000C2F12002BCF1004F20FA02F243EB0200C6
:100B200008BF20F00100704702F1200201FA02FC28
:100B3000C2F1200250EA4C0021FA02F243EB02001B
:100B400008BF20EADC70704780B5A2B002AF884AC7
:100B500007F16C0307CA83E80700864A07F16003C0
:100B600007CA83E80700844A07F1540307CA83E8E9
:100B70000700824A07F1480307CA83E80700804A52
:100B800007F13C0307CA83E807003B4607F16C0204
:100B900007CA83E8070007F10C0307F1600207CAE0
:100BA00083E8070007F1180307F1540207CA83E836
:100BB000070007F1240307F1480207CA83E807008A
:100BC00007F1300307F13C0207CA83E8070000F091
:100BD00049FA00F0E9F800F055F900F021F9694B05
:100BE00000229A61674801F0DDF80322002166487F
:100BF00001F0BFFB4FF0FF3300930323634A6249C8
:100C0000604801F053F9614B1B781BB21B021AB20A
:100C10005E4B5B781BB213431BB29AB25C4B1A80DB
:100C2000002387F87F300023BB6787E0BA6F134645
:100C30005B0013449B0080333B44803B1A88544B39
:100C40001B889A4277D1BA6F13465B0013449B000E
:100C500080333B447C3B1B681846FFF7DDFB4FF0BD
:100C600000024C4BFFF75AFD02460B461046194650
:100C70003BA3D3E90023FFF727FC02460B461046AF
:100C80001946FFF733FE03469AB2434B1A80BA6FF8
:100C900013465B0013449B0080333B44783B1B6846
:100CA0001846FFF7FDFE03461846FFF7B5FB2EA3D7
:100CB000D3E90023FFF732FD02460B4610461946E2
:100CC00027A3D3E90023FFF7FFFB02460B4610469C
:100CD0001946FFF70BFE03469AB2304B1A802E4B93
:100CE0001B881B032D4A128813431A462C4B1A608B
:100CF0002B4B1B681B0CDAB22A4B1A70284B1B6853
:100D00001B0ADAB2274B5A70254B1B68DAB2254B07
:100D10009A70012387F87F304FF0FF33009303234D
:100D20001A4A2049174801F0C1F803220021174848
:100D300001F01FFB06E0BB6F0133BB67BB6F042BE9
:100D40007FF774AF97F87F3083F00103DBB2002B9D
:100D50003FF44BAF03220021124801F00AFB44E7A5
:100D60000000000000FEAF400000000000C0724024
:100D7000E4230008F0230008FC23000808240008EE
:100D800014240008280000208C000020840000208B
:100D900080000020000038409000002092000020D9
:100DA000940000208800002080B590B000AF07F1CB
:100DB000180328220021184601F0DBFA3B1D00220F
:100DC0001A605A609A60DA601A610223BB610123DB
:100DD000BB621023FB6200237B6307F118031846F4
:100DE00000F002FC0346002B01D000F061F80F2355
:100DF0007B600023BB600023FB6000233B6100237A
:100E00007B613B1D0021184600F070FE0346002B5D
:100E100001D000F04DF800BF4037BD4680BD000056
:100E200080B500AF154B164A1A60144B00225A6069
:100E3000124B00229A60114B0022DA600F4B002205
:100E40001A610E4B00225A610C4B00229A610B4B27
:100E500000221A62094B00225A62084B00229A6251
:100E6000064B0A22DA62054800F09CFF0346002B7D
:100E700001D000F01DF800BF80BD00BF2800002099
:100E80000030014080B483B000AF084B9B69074A33
:100E900043F004039361054B9B6903F004037B60FB
:100EA0007B6800BF0C37BD4680BC70470010024015
:100EB00080B400AF72B600BF00BFFDE780B485B05C
:100EC00000AF154B9B69144A43F001039361124B29
:100ED0009B6903F00103BB60BB680F4BDB690E4AE3
:100EE00043F08053D3610C4BDB6903F080537B608C
:100EF0007B680A4B5B68FB60FB6823F0E063FB6088
:100F0000FB6843F08063FB60044AFB68536000BFEA
:100F10001437BD4680BC70470010024000000140FD
:100F200080B588B000AF786007F1100300221A6026
:100F30005A609A60DA607B681B681B4A93422FD123
:100F40001A4B9B69194A43F480539361174B9B6971
:100F500003F48053FB60FB68144B9B69134A43F016
:100F600004039361114B9B6903F00403BB60BB68EE
:100F7000B0233B6100237B610023BB6107F11003B9
:100F800019460B4800F0B4F940233B6102237B6112
:100F90000323FB6107F110031946054800F0A8F987
:100FA00000BF2037BD4680BD003001400010024028
:100FB0000008014080B400AF00BFFDE780B400AF7F
:100FC00000BFFDE780B400AF00BFFDE780B400AF15
:100FD00000BFFDE780B400AF00BFFDE780B400AF05
:100FE00000BFBD4680BC704780B400AF00BFBD46A7
:100FF00080BC704780B400AF00BFBD4680BC704766
:1010000080B500AF00F074F800BF80BD80B400AFC1
:1010100000BFBD4680BC7047FFF7F8FF0B480C4986
:101020000C4A002302E0D458C4500433C4188C4244
:10103000F9D3094A094C002301E013600432A242AB
:10104000FBD301F09FF9FFF77FFD70470000002000
:101050000C0000204C2400080C0000209C00002004
:10106000FEE7000080B500AF084B1B68074A43F05D
:1010700010031360032000F007F90F2000F008F8B8
:10108000FFF71CFF0023184680BD00BF0020024070
:1010900080B582B000AF7860124B1A68124B1B7893
:1010A00019464FF47A73B3FBF1F3B2FBF3F318462E
:1010B00000F011F90346002B01D001230EE07B68FC
:1010C0000F2B0AD8002279684FF0FF3000F0E7F8C4
:1010D000064A7B681360002300E0012318460837A6
:1010E000BD4680BD00000020080000200400002054
:1010F00080B400AF054B1B781A46054B1B681344A0
:10110000034A136000BFBD4680BC70470800002042
:101110009800002080B400AF024B1B681846BD4603
:1011200080BC70479800002080B485B000AF786024
:101130007B6803F00703FB600C4BDB68BB60BA689D
:101140004FF6FF031340BB60FB681A02BB681343F2
:1011500043F0BF6343F40033BB60044ABB68D36011
:1011600000BF1437BD4680BC704700BF00ED00E0F3
:1011700080B400AF044BDB681B0A03F0070318467A
:10118000BD4680BC704700BF00ED00E080B483B076
:1011900000AF03463960FB7197F90730002B0ADB7B
:1011A0003B68DAB20C4997F907301201D2B20B440E
:1011B00083F800230AE03B68DAB20849FB7903F0C0
:1011C0000F03043B1201D2B20B441A7600BF0C3756
:1011D000BD4680BC704700BF00E100E000ED00E0CC
:1011E00080B489B000AFF860B9607A60FB6803F042
:1011F0000703FB61FB69C3F10703042B28BF04232A
:10120000BB61FB690433062B02D9FB69033B00E099
:1012100000237B614FF0FF32BB6902FA03F3DA432C
:10122000BB681A407B699A404FF0FF317B6901FA35
:1012300003F3D9437B680B40134318462437BD465C
:1012400080BC704780B582B000AF78607B68013B9E
:10125000B3F1807F01D301230FE00A4A7B68013B91
:1012600053600F214FF0FF30FFF790FF054B002236
:101270009A60044B07221A60002318460837BD46BF
:1012800080BD00BF10E000E080B582B000AF7860A4
:101290007868FFF749FF00BF0837BD4680BD80B5BD
:1012A00086B000AF0346B9607A60FB7300237B61B0
:1012B000FFF75EFF78617A68B9687869FFF790FF99
:1012C000024697F90F3011461846FFF75FFF00BF3F
:1012D0001837BD4680BD80B582B000AF78607868B1
:1012E000FFF7B0FF034618460837BD4680BD000033
:1012F00080B48BB000AF7860396000237B6200233C
:101300003B6261E101227B6A02FA03F3FB613B6805
:101310001B68FA691340BB61BA69FB699A4240F0E5
:1013200050813B685B68974A93425ED0954A9342EE
:1013300075D8954A934258D0934A93426FD8934AAE
:10134000934252D0914A934269D8914A93424CD0E9
:101350008F4A934263D88F4A934246D08D4A934234
:101360005DD8122B2AD8122B59D801A252F823F09B
:10137000EB130008C5130008D71300081914000860
:101380001F1400081F1400081F1400081F14000871
:101390001F1400081F1400081F1400081F14000861
:1013A0001F1400081F1400081F1400081F14000851
:1013B0001F140008CD130008E1130008764A934279
:1013C00013D02CE03B68DB683B6229E03B68DB68BC
:1013D00004333B6224E03B68DB6808333B621FE078
:1013E0003B68DB680C333B621AE03B689B68002B70
:1013F00002D104233B6213E03B689B68012B05D1BB
:1014000008233B627B68FA691A6109E008233B62A2
:101410007B68FA695A6103E000233B6200E000BF89
:10142000BB69FF2B01D87B6801E07B6804337B61DB
:10143000BB69FF2B02D87B6A9B0002E07B6A083BFA
:101440009B003B617B691A680F213B6901FA03F33A
:10145000DB431A40396A3B6901FA03F31A437B699B
:101460001A603B685B6803F08053002B00F0A98092
:101470004A4B9B69494A43F001039361474B9B697F
:1014800003F00103BB60BB68454A7B6A9B080233DB
:1014900052F82330FB607B6A03F003039B000F22AA
:1014A00002FA03F3DB43FA681340FB607B683D4AB2
:1014B00093420DD07B683C4A934207D07B683B4AFD
:1014C000934201D1022304E0032302E0012300E060
:1014D00000237A6A02F0030292009340FA681343F1
:1014E000FB602F497B6A9B080233FA6841F823208E
:1014F0003B685B6803F48013002B06D02C4B9A6882
:101500002B49BB6913438B6006E0294B9A68BB6982
:10151000DB43274913408B603B685B6803F400138F
:10152000002B06D0224BDA682149BB691343CB60FC
:1015300006E01F4BDA68BB69DB431D491340CB60F3
:101540003B685B6803F40033002B06D0184B5A68E5
:101550001749BB6913434B6006E0154B5A68BB69DA
:10156000DB43134913404B603B685B6803F48033F3
:10157000002B1FD00E4B1A680D49BB6913430B603B
:101580001FE000BF000032100000311000002210E8
:101590000000211000001210000011100010024085
:1015A0000000014000080140000C01400010014013
:1015B000000401400B4B1A68BB69DB430949134027
:1015C0000B607B6A01337B623B681A687B6A22FA94
:1015D00003F3002B7FF496AE00BF00BF2C37BD464F
:1015E00080BC70470004014080B586B000AF7860D1
:1015F0007B68002B01D1012372E27B681B6803F03A
:101600000103002B00F08780924B5B6803F00C0312
:10161000042B0CD08F4B5B6803F00C03082B12D10A
:101620008C4B5B6803F48033B3F5803F0BD1894B5F
:101630001B6803F40033002B6CD07B685B68002BC5
:1016400068D101234CE27B685B68B3F5803F06D12B
:10165000804B1B687F4A43F4803313602EE07B6825
:101660005B68002B0CD17B4B1B687A4A23F48033D8
:101670001360784B1B68774A23F4802313601DE0C6
:101680007B685B68B3F5A02F0CD1724B1B68714A65
:1016900043F4802313606F4B1B686E4A43F480331E
:1016A00013600BE06B4B1B686A4A23F480331360B2
:1016B000684B1B68674A23F4802313607B685B6870
:1016C000002B13D0FFF726FD386108E0FFF722FD5D
:1016D00002463B69D31A642B01D9032300E25D4B18
:1016E0001B6803F40033002BF0D014E0FFF712FD69
:1016F000386108E0FFF70EFD02463B69D31A642B00
:1017000001D90323ECE1534B1B6803F40033002B96
:10171000F0D100E000BF7B681B6803F00203002BE0
:1017200063D04C4B5B6803F00C03002B0BD0494B90
:101730005B6803F00C03082B1CD1464B5B6803F479
:101740008033002B16D1434B1B6803F00203002BA0
:1017500005D07B681B69012B01D00123C0E13D4B03
:101760001B6823F0F8027B685B69DB00394913438F
:101770000B603AE07B681B69002B20D0364B0122BE
:101780001A60FFF7C7FC386108E0FFF7C3FC0246A8
:101790003B69D31A022B01D90323A1E12D4B1B680E
:1017A00003F00203002BF0D02A4B1B6823F0F80251
:1017B0007B685B69DB00274913430B6015E0264B10
:1017C00000221A60FFF7A6FC386108E0FFF7A2FCD0
:1017D00002463B69D31A022B01D9032380E11D4B3A
:1017E0001B6803F00203002BF0D17B681B6803F039
:1017F0000803002B3AD07B689B69002B19D0174B4C
:1018000001221A60FFF786FC386108E0FFF782FCCE
:1018100002463B69D31A022B01D9032360E10D4B29
:101820005B6A03F00203002BF0D0012000F09CFA69
:101830001CE00A4B00221A60FFF76CFC38610FE0D5
:10184000FFF768FC02463B69D31A022B08D9032331
:1018500046E100BF001002400000424280044242C4
:10186000924B5B6A03F00203002BE9D17B681B6893
:1018700003F00403002B00F0A6800023FB758B4BC4
:10188000DB6903F08053002B0DD1884BDB69874A5D
:1018900043F08053D361854BDB6903F08053BB6019
:1018A000BB680123FB75824B1B6803F48073002B1C
:1018B00018D17F4B1B687E4A43F480731360FFF797
:1018C00029FC386108E0FFF725FC02463B69D31A82
:1018D000642B01D9032303E1754B1B6803F4807368
:1018E000002BF0D07B68DB68012B06D16F4B1B6AA5
:1018F0006E4A43F0010313622DE07B68DB68002B26
:101900000CD16A4B1B6A694A23F001031362674BCF
:101910001B6A664A23F0040313621CE07B68DB68E1
:10192000052B0CD1614B1B6A604A43F00403136220
:101930005E4B1B6A5D4A43F0010313620BE05B4B95
:101940001B6A5A4A23F001031362584B1B6A574A19
:1019500023F0040313627B68DB68002B15D0FFF7CC
:10196000D9FB38610AE0FFF7D5FB02463B69D31A81
:1019700041F28832934201D90323B1E04B4B1B6AF9
:1019800003F00203002BEED014E0FFF7C3FB386135
:101990000AE0FFF7BFFB02463B69D31A41F28832E7
:1019A000934201D903239BE0404B1B6A03F00203DF
:1019B000002BEED1FB7D012B05D13C4BDB693B4A73
:1019C00023F08053D3617B68DB69002B00F08780B4
:1019D000364B5B6803F00C03082B61D07B68DB6936
:1019E000022B46D1334B00221A60FFF793FB38617C
:1019F00008E0FFF78FFB02463B69D31A022B01D99F
:101A000003236DE0294B1B6803F00073002BF0D11A
:101A10007B681B6AB3F5803F08D1244B5B6823F4D5
:101A200000327B689B68214913434B601F4B5B6806
:101A300023F474127B68196A7B685B6A0B431B4949
:101A400013434B601B4B01221A60FFF763FB3861A5
:101A500008E0FFF75FFB02463B69D31A022B01D96E
:101A600003233DE0114B1B6803F00073002BF0D003
:101A700035E0104B00221A60FFF74CFB386108E09C
:101A8000FFF748FB02463B69D31A022B01D9032317
:101A900026E0064B1B6803F00073002BF0D11EE01C
:101AA0007B68DB69012B07D1012319E0001002409C
:101AB00000700040600042420B4B5B68FB60FB68BB
:101AC00003F480327B681B6A9A4206D1FB6803F4F8
:101AD00070127B685B6A9A4201D0012300E0002308
:101AE00018461837BD4680BD0010024080B584B04E
:101AF00000AF786039607B68002B01D10123D0E012
:101B00006A4B1B6803F007033A689A4210D9674B87
:101B10001B6823F0070265493B6813430B60634B66
:101B20001B6803F007033A689A4201D00123B8E02A
:101B30007B681B6803F00203002B20D07B681B68C6
:101B400003F00403002B05D0594B5B68584A43F45B
:101B5000E06353607B681B6803F00803002B05D02B
:101B6000534B5B68524A43F460535360504B5B687D
:101B700023F0F0027B689B684D4913434B607B6800
:101B80001B6803F00103002B40D07B685B68012BCE
:101B900007D1474B1B6803F40033002B15D10123F9
:101BA0007FE07B685B68022B07D1414B1B6803F029
:101BB0000073002B09D1012373E03D4B1B6803F038
:101BC0000203002B01D101236BE0394B5B6823F04A
:101BD00003027B685B68364913434B60FFF79AFA50
:101BE000F8600AE0FFF796FA0246FB68D31A41F262
:101BF0008832934201D9032353E02D4B5B6803F0F5
:101C00000C027B685B689B009A42EBD1274B1B68F8
:101C100003F007033A689A4210D2244B1B6823F062
:101C2000070222493B6813430B60204B1B6803F0FB
:101C300007033A689A4201D0012332E07B681B68AF
:101C400003F00403002B08D0194B5B6823F4E06217
:101C50007B68DB68164913434B607B681B6803F0A5
:101C60000803002B09D0124B5B6823F460527B6899
:101C70001B69DB000E4913434B6000F021F802465C
:101C80000B4B5B681B0903F00F030A49CB5C22FA7C
:101C900003F3094A1360094B1B681846FFF7F8F96C
:101CA000002318461037BD4680BD00BF002002400B
:101CB0000010024020240008000000200400002042
:101CC00080B487B000AF0023FB600023BB6000231B
:101CD0007B6100237B6000233B611E4B5B68FB60E4
:101CE000FB6803F00C03042B02D0082B03D027E081
:101CF000194B3B6127E0FB689B0C03F00F03174A6D
:101D0000D35C7B60FB6803F48033002B10D0114B55
:101D10005B685B0C03F00103114AD35CBB607B681A
:101D20000D4A03FB02F2BB68B2FBF3F37B6104E0F4
:101D30007B680C4A02FB03F37B617B693B6102E039
:101D4000054B3B6100BF3B6918461C37BD4680BC54
:101D5000704700BF0010024000127A0030240008D3
:101D60004024000800093D0080B485B000AF7860D1
:101D70000A4B1B680A4AA2FB03235B0A7A6802FB30
:101D800003F3FB6000BFFB685A1EFA60002BF9D119
:101D900000BF00BF1437BD4680BC70470000002064
:101DA000D34D621080B582B000AF78607B68002BA5
:101DB00001D1012376E07B685B6A002B08D17B6848
:101DC0005B68B3F5827F09D07B680022DA6105E0A9
:101DD0007B6800221A617B6800225A617B680022BE
:101DE0009A627B6893F85130DBB2002B06D17B6896
:101DF000002283F850207868FFF792F87B6802226F
:101E000083F851207B681B681A687B681B6822F086
:101E100040021A607B685B6803F482727B689B688F
:101E200003F404431A437B68DB6803F400631A433A
:101E30007B681B6903F002031A437B685B6903F04C
:101E400001031A437B689B6903F400731A437B68A0
:101E5000DB6903F038031A437B681B6A03F08003D5
:101E600042EA03017B689B6A03F400527B681B68AB
:101E70000A431A607B689B691A0C7B681B6802F036
:101E800004025A607B681B68DA697B681B6822F46D
:101E90000062DA617B6800225A657B68012283F860
:101EA0005120002318460837BD4680BD80B58AB052
:101EB00000AFF860B9607A607B8001237B62FFF736
:101EC00029F93862FB6893F85130FB77FB685B684F
:101ED000BB617B88FB82FB7F012B0CD0BB69B3F518
:101EE000827F06D1FB689B68002B02D1FB7F042B0D
:101EF00001D002237FE1BB68002B05D07B68002B5B
:101F000002D07B88002B01D1012374E1FB6893F898
:101F10005030012B01D102236DE1FB68012283F8CF
:101F20005020FB6893F85130DBB2042B03D0FB68E0
:101F3000052283F85120FB6800225A65FB687A6805
:101F40009A63FB687A88DA87FB687A889A87FB68E5
:101F5000BA681A63FB687A88DA86FB687A889A8698
:101F6000FB6800221A64FB6800225A64FB681B6845
:101F70001B6803F04003402B07D0FB681B681A68FE
:101F8000FB681B6842F040021A60FB68DB68B3F52F
:101F9000006F7ED1FB685B68002B02D0FB8A012BAF
:101FA0006CD1FB681B6B1A88FB681B68DA60FB68E6
:101FB0001B6B9A1CFB681A63FB68DB8E9BB2013BB0
:101FC0009AB2FB68DA8659E0FB681B689B6803F0ED
:101FD0000203022B1BD1FB68DB8E9BB2002B16D0B9
:101FE0007B6A012B13D1FB681B6B1A88FB681B688B
:101FF000DA60FB681B6B9A1CFB681A63FB68DB8E5C
:102000009BB2013B9AB2FB68DA8600237B62FB68D5
:102010001B689B6803F00103012B19D1FB68DB8F60
:102020009BB2002B14D0FB681B68DA68FB689B6BC3
:1020300092B21A80FB689B6B9A1CFB689A63FB68E0
:10204000DB8F9BB2013B9AB2FB68DA8701237B628C
:10205000FFF760F802463B6AD31A3A6B9A420DD8F2
:102060003B6BB3F1FF3F09D0FB68012283F851209D
:10207000FB68002283F850200323BCE0FB68DB8E62
:102080009BB2002BA0D1FB68DB8F9BB2002B9BD1B6
:1020900082E0FB685B68002B02D0FB8A012B71D1C8
:1020A000FB681A6BFB681B680C3312781A70FB68AC
:1020B0001B6B5A1CFB681A63FB68DB8E9BB2013BEF
:1020C0009AB2FB68DA865DE0FB681B689B6803F0E8
:1020D0000203022B1CD1FB68DB8E9BB2002B17D0B6
:1020E0007B6A012B14D1FB681A6BFB681B680C33ED
:1020F00012781A70FB681B6B5A1CFB681A63FB682A
:10210000DB8E9BB2013B9AB2FB68DA8600237B62CE
:10211000FB681B689B6803F00103012B19D1FB6866
:10212000DB8F9BB2002B14D0FB681B68DA68FB685E
:102130009B6BD2B21A70FB689B6B5A1CFB689A634C
:10214000FB68DB8F9BB2013B9AB2FB68DA87012305
:102150007B62FEF7DFFF02463B6AD31A3A6B9A4274
:1021600003D83B6BB3F1FF3F02D13B6B002B09D18E
:10217000FB68012283F85120FB68002283F850207D
:10218000032338E0FB68DB8E9BB2002B9CD1FB68FD
:10219000DB8F9BB2002B97D13A6A396BF86800F05D
:1021A000B7F80346002B08D0FB6820225A65FB686D
:1021B000002283F8502001231DE0FB689B68002B60
:1021C0000AD100233B61FB681B68DB683B61FB684D
:1021D0001B689B683B613B69FB68012283F85120C7
:1021E000FB68002283F85020FB685B6D002B01D058
:1021F000012300E0002318462837BD4680BD0000BB
:1022000080B588B000AFF860B9603B601346FB71E1
:10221000FEF780FF0246BB6A9B1A3A681344FB61D3
:10222000FEF778FFB861394B1B685B011B0DFA693B
:1022300002FB03F37B6154E03B68B3F1FF3F50D0F6
:10224000FEF768FF0246BB69D31AFA699A4202D9BF
:10225000FB69002B3DD1FB681B685A68FB681B6853
:1022600022F0E0025A60FB685B68B3F5827F11D10F
:10227000FB689B68B3F5004F04D0FB689B68B3F51F
:10228000806F07D1FB681B681A68FB681B6822F027
:1022900040021A60FB689B6AB3F5005F0FD1FB68D0
:1022A0001B681A68FB681B6822F400521A60FB68FE
:1022B0001B681A68FB681B6842F400521A60FB68CE
:1022C000012283F85120FB68002283F85020032369
:1022D00017E07B69002B01D10023FB617B69013B87
:1022E0007B61FB681B689A68BB681340BA689A42B6
:1022F0000CBF01230023DBB21A46FB799A429BD123
:10230000002318462037BD4680BD00BF00000020D6
:1023100080B586B002AFF860B9607A607B680093E0
:10232000BB6801220221F868FFF76AFF0346002B11
:1023300007D0FB685B6D43F02002FB685A650323FE
:1023400013E07B680093BB6800228021F868FFF7E8
:1023500057FF0346002B07D0FB685B6D43F020025C
:10236000FB685A65032300E0002318461037BD467A
:1023700080BD03460244934200D1704703F8011B1D
:10238000F9E7000070B500260C4D0D4C641BA4103D
:10239000A64209D100F01AF800260A4D0A4C641B27
:1023A000A410A64205D170BD55F8043B98470136EC
:1023B000EEE755F8043B98470136F2E7442400085D
:1023C000442400084424000848240008F8B500BF4D
:1023D000F8BC08BC9E467047F8B500BFF8BC08BC06
:0423E0009E4670475E
:1023E40001100000CDCC4441C800000002100000E0
:1023F400333363419600000003100000CDCC5C41F0
:10240400640000000410000000003841DC000000FB
:102414000510000066662E4118010000000000004F
:102424000000000001020304060708090203040572
:10243400060708090A0B0C0D0E0F1010010200000C
:042444003501000856
:042448001101000876
:0C244C0000127A001000000001000000E7
:0400000508001019C6
:00000001FF
